{
  "contractName": "TicTacToeContract",
  "abi": [
    {
      "constant": true,
      "inputs": [],
      "name": "status",
      "outputs": [
        {
          "name": "",
          "type": "uint8"
        }
      ],
      "payable": false,
      "stateMutability": "view",
      "type": "function"
    },
    {
      "constant": true,
      "inputs": [],
      "name": "minStake",
      "outputs": [
        {
          "name": "",
          "type": "uint256"
        }
      ],
      "payable": false,
      "stateMutability": "view",
      "type": "function"
    },
    {
      "constant": true,
      "inputs": [],
      "name": "currentRound",
      "outputs": [
        {
          "name": "",
          "type": "uint256"
        }
      ],
      "payable": false,
      "stateMutability": "view",
      "type": "function"
    },
    {
      "constant": true,
      "inputs": [],
      "name": "owner",
      "outputs": [
        {
          "name": "",
          "type": "address"
        }
      ],
      "payable": false,
      "stateMutability": "view",
      "type": "function"
    },
    {
      "inputs": [],
      "payable": false,
      "stateMutability": "nonpayable",
      "type": "constructor"
    },
    {
      "payable": true,
      "stateMutability": "payable",
      "type": "fallback"
    },
    {
      "anonymous": false,
      "inputs": [],
      "name": "betMadeEvent",
      "type": "event"
    },
    {
      "anonymous": false,
      "inputs": [],
      "name": "roundEndedEvent",
      "type": "event"
    },
    {
      "anonymous": false,
      "inputs": [],
      "name": "FaucetUsedEvent",
      "type": "event"
    },
    {
      "constant": false,
      "inputs": [],
      "name": "fillFaucet",
      "outputs": [],
      "payable": true,
      "stateMutability": "payable",
      "type": "function"
    },
    {
      "constant": true,
      "inputs": [],
      "name": "getBalance",
      "outputs": [
        {
          "name": "balance",
          "type": "uint256"
        }
      ],
      "payable": false,
      "stateMutability": "view",
      "type": "function"
    },
    {
      "constant": false,
      "inputs": [],
      "name": "useFaucet",
      "outputs": [],
      "payable": false,
      "stateMutability": "nonpayable",
      "type": "function"
    },
    {
      "constant": false,
      "inputs": [],
      "name": "endFaucet",
      "outputs": [],
      "payable": false,
      "stateMutability": "nonpayable",
      "type": "function"
    },
    {
      "constant": false,
      "inputs": [
        {
          "name": "_betField",
          "type": "uint256"
        }
      ],
      "name": "newBetForTeamA",
      "outputs": [],
      "payable": true,
      "stateMutability": "payable",
      "type": "function"
    },
    {
      "constant": false,
      "inputs": [
        {
          "name": "_betField",
          "type": "uint256"
        }
      ],
      "name": "newBetForTeamB",
      "outputs": [],
      "payable": true,
      "stateMutability": "payable",
      "type": "function"
    },
    {
      "constant": false,
      "inputs": [],
      "name": "endRound",
      "outputs": [],
      "payable": false,
      "stateMutability": "nonpayable",
      "type": "function"
    },
    {
      "constant": true,
      "inputs": [],
      "name": "getActiveTeam",
      "outputs": [
        {
          "name": "_activeTeam",
          "type": "uint256"
        }
      ],
      "payable": false,
      "stateMutability": "view",
      "type": "function"
    },
    {
      "constant": true,
      "inputs": [],
      "name": "getWinningFieldIndex",
      "outputs": [
        {
          "name": "_winningFieldIndex",
          "type": "uint256"
        }
      ],
      "payable": false,
      "stateMutability": "view",
      "type": "function"
    },
    {
      "constant": true,
      "inputs": [],
      "name": "getPot",
      "outputs": [
        {
          "name": "totaltPot",
          "type": "uint256"
        },
        {
          "name": "totallPot",
          "type": "uint256"
        }
      ],
      "payable": false,
      "stateMutability": "view",
      "type": "function"
    },
    {
      "constant": true,
      "inputs": [
        {
          "name": "_Teamid",
          "type": "uint256"
        }
      ],
      "name": "getTeamInfo",
      "outputs": [
        {
          "name": "numBetsCurrentRound",
          "type": "uint256"
        },
        {
          "name": "amountBetCurrentRound",
          "type": "uint256"
        },
        {
          "name": "totalNumPlayers",
          "type": "uint256"
        },
        {
          "name": "totalAmountBet",
          "type": "uint256"
        },
        {
          "name": "nextBet",
          "type": "bool"
        }
      ],
      "payable": false,
      "stateMutability": "view",
      "type": "function"
    },
    {
      "constant": true,
      "inputs": [
        {
          "name": "_Teamid",
          "type": "uint256"
        },
        {
          "name": "_playerAddress",
          "type": "address"
        }
      ],
      "name": "getPlayerInfoByAddress",
      "outputs": [
        {
          "name": "playerAddress",
          "type": "address"
        },
        {
          "name": "isTeamA",
          "type": "bool"
        },
        {
          "name": "totalNumMovesBet",
          "type": "uint256"
        },
        {
          "name": "totalAmountBet",
          "type": "uint256"
        },
        {
          "name": "lastBetRound",
          "type": "uint256"
        }
      ],
      "payable": false,
      "stateMutability": "view",
      "type": "function"
    },
    {
      "constant": true,
      "inputs": [
        {
          "name": "_Teamid",
          "type": "uint256"
        },
        {
          "name": "_id",
          "type": "uint256"
        }
      ],
      "name": "getPlayerInfoById",
      "outputs": [
        {
          "name": "id",
          "type": "uint256"
        },
        {
          "name": "playerAddress",
          "type": "address"
        },
        {
          "name": "isTeamA",
          "type": "bool"
        },
        {
          "name": "totalNumMovesBet",
          "type": "uint256"
        },
        {
          "name": "totalAmountBet",
          "type": "uint256"
        },
        {
          "name": "lastBetRound",
          "type": "uint256"
        }
      ],
      "payable": false,
      "stateMutability": "view",
      "type": "function"
    },
    {
      "constant": true,
      "inputs": [],
      "name": "getWinner",
      "outputs": [
        {
          "name": "winningTeamIndex",
          "type": "uint256"
        }
      ],
      "payable": false,
      "stateMutability": "view",
      "type": "function"
    },
    {
      "constant": true,
      "inputs": [
        {
          "name": "_fieldId",
          "type": "uint256"
        }
      ],
      "name": "getBoardInfo",
      "outputs": [
        {
          "name": "id",
          "type": "uint256"
        },
        {
          "name": "unplayedOrAorB",
          "type": "uint256"
        },
        {
          "name": "numBets",
          "type": "uint256"
        },
        {
          "name": "amountBet",
          "type": "uint256"
        }
      ],
      "payable": false,
      "stateMutability": "view",
      "type": "function"
    },
    {
      "constant": true,
      "inputs": [],
      "name": "getTimeOfCurrentRound",
      "outputs": [
        {
          "name": "elapsedTime",
          "type": "uint256"
        }
      ],
      "payable": false,
      "stateMutability": "view",
      "type": "function"
    },
    {
      "constant": true,
      "inputs": [],
      "name": "getToday",
      "outputs": [
        {
          "name": "_today",
          "type": "uint256"
        }
      ],
      "payable": false,
      "stateMutability": "view",
      "type": "function"
    }
  ],
  "bytecode": "0x6080604052600a6006556714d1120d7b1600006008553480156200002257600080fd5b5033600560016101000a81548173ffffffffffffffffffffffffffffffffffffffff021916908373ffffffffffffffffffffffffffffffffffffffff1602179055506200007d62000083640100000000026401000000009004565b6200019e565b60008060008060008060008060006101000a81548160ff02191690836004811115620000ab57fe5b02179055506001955060016000878152602001908152602001600020945085856000018190555060018560070160006101000a81548160ff0219169083151502179055506002935060016000858152602001908152602001600020925083836000018190555060008360070160006101000a81548160ff021916908315150217905550600191505b600a8210156200018757600260008381526020019081526020016000209050818160000181905550600081600101819055506000816002018190555060008160030181905550818060010192505062000133565b600160038190555042600481905550505050505050565b61299880620001ae6000396000f30060806040526004361061011d576000357c0100000000000000000000000000000000000000000000000000000000900463ffffffff16806312065fe01461011f5780631d8fad3a1461014a578063200d2ed21461017557806323cf8693146101ae57806324f790191461024c57806329814998146102565780633385488c1461026d578063364e56cf14610284578063375b3c0a146102a4578063403c9fa8146102cf578063749aa2d9146103015780638a19c8bc146103185780638da5cb5b146103435780638e7ea5b21461039a578063969215ba146103c5578063a4f3fa1014610426578063bd80b4ce14610451578063c19342221461047c578063ce2886e31461049c578063d1fb28bb146104c7578063f2e6531d1461051d575b005b34801561012b57600080fd5b506101346105ca565b6040518082815260200191505060405180910390f35b34801561015657600080fd5b5061015f6105e9565b6040518082815260200191505060405180910390f35b34801561018157600080fd5b5061018a61065f565b6040518082600481111561019a57fe5b60ff16815260200191505060405180910390f35b3480156101ba57600080fd5b506101e36004803603810190808035906020019092919080359060200190929190505050610671565b604051808781526020018673ffffffffffffffffffffffffffffffffffffffff1673ffffffffffffffffffffffffffffffffffffffff16815260200185151515158152602001848152602001838152602001828152602001965050505050505060405180910390f35b6102546107f1565b005b34801561026257600080fd5b5061026b61081f565b005b34801561027957600080fd5b506102826109a7565b005b6102a260048036038101908080359060200190929190505050610b09565b005b3480156102b057600080fd5b506102b961105c565b6040518082815260200191505060405180910390f35b3480156102db57600080fd5b506102e4611068565b604051808381526020018281526020019250505060405180910390f35b34801561030d57600080fd5b506103166110cc565b005b34801561032457600080fd5b5061032d6119e8565b6040518082815260200191505060405180910390f35b34801561034f57600080fd5b506103586119ee565b604051808273ffffffffffffffffffffffffffffffffffffffff1673ffffffffffffffffffffffffffffffffffffffff16815260200191505060405180910390f35b3480156103a657600080fd5b506103af611a14565b6040518082815260200191505060405180910390f35b3480156103d157600080fd5b506103f060048036038101908080359060200190929190505050611ae7565b60405180868152602001858152602001848152602001838152602001821515151581526020019550505050505060405180910390f35b34801561043257600080fd5b5061043b611b82565b6040518082815260200191505060405180910390f35b34801561045d57600080fd5b50610466611b8a565b6040518082815260200191505060405180910390f35b61049a60048036038101908080359060200190929190505050611b96565b005b3480156104a857600080fd5b506104b16120e9565b6040518082815260200191505060405180910390f35b3480156104d357600080fd5b506104f260048036038101908080359060200190929190505050612116565b6040518085815260200184815260200183815260200182815260200194505050505060405180910390f35b34801561052957600080fd5b5061056860048036038101908080359060200190929190803573ffffffffffffffffffffffffffffffffffffffff169060200190929190505050612187565b604051808673ffffffffffffffffffffffffffffffffffffffff1673ffffffffffffffffffffffffffffffffffffffff168152602001851515151581526020018481526020018381526020018281526020019550505050505060405180910390f35b60003073ffffffffffffffffffffffffffffffffffffffff1631905090565b60008060008060009250600191505b600a82101561065657600060026000848152602001908152602001600020600101541415610649576002600083815260200190815260200160002060030154905082811115610648578193508092505b5b81806001019250506105f8565b83935050505090565b6000809054906101000a900460ff1681565b60008060008060008060008061068561291d565b600160008c815260200190815260200160002092508260060160008b815260200190815260200160002060009054906101000a900473ffffffffffffffffffffffffffffffffffffffff1691508260050160008373ffffffffffffffffffffffffffffffffffffffff1673ffffffffffffffffffffffffffffffffffffffff16815260200190815260200160002060c06040519081016040529081600082015481526020016001820154815260200160028201548152602001600382015481526020016004820160009054906101000a900473ffffffffffffffffffffffffffffffffffffffff1673ffffffffffffffffffffffffffffffffffffffff1673ffffffffffffffffffffffffffffffffffffffff1681526020016004820160149054906101000a900460ff1615151515815250509050806000015181608001518260a001518360400151846020015185606001519850985098509850985098505050509295509295509295565b7f9399441a969550a76afd459f2aaa9bc81bba4ddfd9b77a41e06fa08c7167b6b560405160405180910390a1565b600080600481111561082d57fe5b6000809054906101000a900460ff16600481111561084757fe5b14151561085357600080fd5b60001515600760003373ffffffffffffffffffffffffffffffffffffffff1673ffffffffffffffffffffffffffffffffffffffff16815260200190815260200160002060009054906101000a900460ff1615151480156108cc57506008543073ffffffffffffffffffffffffffffffffffffffff163110155b15156108d757600080fd5b6001600760003373ffffffffffffffffffffffffffffffffffffffff1673ffffffffffffffffffffffffffffffffffffffff16815260200190815260200160002060006101000a81548160ff0219169083151502179055503373ffffffffffffffffffffffffffffffffffffffff166108fc6008549081150290604051600060405180830381858888f19350505050158015610977573d6000803e3d6000fd5b507f9399441a969550a76afd459f2aaa9bc81bba4ddfd9b77a41e06fa08c7167b6b560405160405180910390a150565b600560019054906101000a900473ffffffffffffffffffffffffffffffffffffffff1673ffffffffffffffffffffffffffffffffffffffff163373ffffffffffffffffffffffffffffffffffffffff16141515610a0357600080fd5b6000806004811115610a1157fe5b6000809054906101000a900460ff166004811115610a2b57fe5b141515610a3757600080fd5b600560019054906101000a900473ffffffffffffffffffffffffffffffffffffffff1673ffffffffffffffffffffffffffffffffffffffff166108fc3073ffffffffffffffffffffffffffffffffffffffff16319081150290604051600060405180830381858888f19350505050158015610ab6573d6000803e3d6000fd5b5060016000806101000a81548160ff02191690836004811115610ad557fe5b02179055507f9399441a969550a76afd459f2aaa9bc81bba4ddfd9b77a41e06fa08c7167b6b560405160405180910390a150565b60008060008073ffffffffffffffffffffffffffffffffffffffff16600160006002815260200190815260200160002060050160003373ffffffffffffffffffffffffffffffffffffffff1673ffffffffffffffffffffffffffffffffffffffff16815260200190815260200160002060040160009054906101000a900473ffffffffffffffffffffffffffffffffffffffff1673ffffffffffffffffffffffffffffffffffffffff16141515610bbf57600080fd5b600560019054906101000a900473ffffffffffffffffffffffffffffffffffffffff1673ffffffffffffffffffffffffffffffffffffffff163373ffffffffffffffffffffffffffffffffffffffff1614151515610c1c57600080fd5b60011515600160006001815260200190815260200160002060070160009054906101000a900460ff161515141515610c5357600080fd5b83600081118015610c645750600a81105b1515610c6f57600080fd5b8460006002600083815260200190815260200160002060010154141515610c9557600080fd5b600354600160006001815260200190815260200160002060050160003373ffffffffffffffffffffffffffffffffffffffff1673ffffffffffffffffffffffffffffffffffffffff16815260200190815260200160002060030154101515610cfc57600080fd5b600354600160006002815260200190815260200160002060050160003373ffffffffffffffffffffffffffffffffffffffff1673ffffffffffffffffffffffffffffffffffffffff16815260200190815260200160002060030154101515610d6357600080fd5b67016345785d8a00003410151515610d7a57600080fd5b6001806004811115610d8857fe5b6000809054906101000a900460ff166004811115610da257fe5b141515610dae57600080fd5b600160006001815260200190815260200160002060050160003373ffffffffffffffffffffffffffffffffffffffff1673ffffffffffffffffffffffffffffffffffffffff1681526020019081526020016000209550600073ffffffffffffffffffffffffffffffffffffffff168660040160009054906101000a900473ffffffffffffffffffffffffffffffffffffffff1673ffffffffffffffffffffffffffffffffffffffff161415610f54576001600060018152602001908152602001600020600401600081546001019190508190559450336001600060018152602001908152602001600020600601600087815260200190815260200160002060006101000a81548173ffffffffffffffffffffffffffffffffffffffff021916908373ffffffffffffffffffffffffffffffffffffffff160217905550848660000181905550338660040160006101000a81548173ffffffffffffffffffffffffffffffffffffffff021916908373ffffffffffffffffffffffffffffffffffffffff16021790555060018660040160146101000a81548160ff0219169083151502179055505b600260008881526020019081526020016000209350836002016000815480929190600101919050555034846003016000828254019250508190555060016000600181526020019081526020016000206001016000815480929190600101919050555034600160006001815260200190815260200160002060020160008282540192505081905550348660010160008282540192505081905550856002016000815480929190600101919050555060035486600301819055506001600560006101000a81548160ff0219169083151502179055507f0b1ae1e99afdc0e010b1efddaedaba5129ae685d967cc6861d0b370de83d568b60405160405180910390a150505050505050565b67016345785d8a000081565b6000803073ffffffffffffffffffffffffffffffffffffffff163160646006543073ffffffffffffffffffffffffffffffffffffffff1631028115156110aa57fe5b043073ffffffffffffffffffffffffffffffffffffffff163103915091509091565b6000806000806000600560019054906101000a900473ffffffffffffffffffffffffffffffffffffffff1673ffffffffffffffffffffffffffffffffffffffff163373ffffffffffffffffffffffffffffffffffffffff1614151561113057600080fd5b600180600481111561113e57fe5b6000809054906101000a900460ff16600481111561115857fe5b14151561116457600080fd5b60011515600560009054906101000a900460ff16151514151561118657600080fd5b61118e6120e9565b955060016000878152602001908152602001600020600201546001600088815260200190815260200160002060030160008282540192505081905550600060016000888152602001908152602001600020600101819055506000600160008881526020019081526020016000206002018190555061120a6105e9565b9450600260008681526020019081526020016000209350600186141561129857600184600101819055506000600160006001815260200190815260200160002060070160006101000a81548160ff02191690831515021790555060018060006002815260200190815260200160002060070160006101000a81548160ff02191690831515021790555061130c565b600286141561130b576004846001018190555060018060006001815260200190815260200160002060070160006101000a81548160ff0219169083151502179055506000600160006002815260200190815260200160002060070160006101000a81548160ff0219169083151502179055505b5b600560035410151561191e576003600260006003815260200190815260200160002060010154600260006002815260200190815260200160002060010154600260006001815260200190815260200160002060010154010114806113b9575060036002600060068152602001908152602001600020600101546002600060058152602001908152602001600020600101546002600060048152602001908152602001600020600101540101145b8061140d575060036002600060098152602001908152602001600020600101546002600060088152602001908152602001600020600101546002600060078152602001908152602001600020600101540101145b80611461575060036002600060078152602001908152602001600020600101546002600060048152602001908152602001600020600101546002600060018152602001908152602001600020600101540101145b806114b5575060036002600060088152602001908152602001600020600101546002600060058152602001908152602001600020600101546002600060028152602001908152602001600020600101540101145b80611509575060036002600060098152602001908152602001600020600101546002600060068152602001908152602001600020600101546002600060038152602001908152602001600020600101540101145b8061155d575060036002600060098152602001908152602001600020600101546002600060058152602001908152602001600020600101546002600060018152602001908152602001600020600101540101145b806115b1575060036002600060078152602001908152602001600020600101546002600060058152602001908152602001600020600101546002600060038152602001908152602001600020600101540101145b156115e65760026000806101000a81548160ff021916908360048111156115d457fe5b02179055506115e16122c4565b61191d565b600c600260006003815260200190815260200160002060010154600260006002815260200190815260200160002060010154600260006001815260200190815260200160002060010154010114806116875750600c6002600060068152602001908152602001600020600101546002600060058152602001908152602001600020600101546002600060048152602001908152602001600020600101540101145b806116db5750600c6002600060098152602001908152602001600020600101546002600060088152602001908152602001600020600101546002600060078152602001908152602001600020600101540101145b8061172f5750600c6002600060078152602001908152602001600020600101546002600060048152602001908152602001600020600101546002600060018152602001908152602001600020600101540101145b806117835750600c6002600060088152602001908152602001600020600101546002600060058152602001908152602001600020600101546002600060028152602001908152602001600020600101540101145b806117d75750600c6002600060098152602001908152602001600020600101546002600060068152602001908152602001600020600101546002600060038152602001908152602001600020600101540101145b8061182b5750600c6002600060098152602001908152602001600020600101546002600060058152602001908152602001600020600101546002600060018152602001908152602001600020600101540101145b8061187f5750600c6002600060078152602001908152602001600020600101546002600060058152602001908152602001600020600101546002600060038152602001908152602001600020600101540101145b156118b45760036000806101000a81548160ff021916908360048111156118a257fe5b02179055506118af6122c4565b61191c565b600160048111156118c157fe5b6000809054906101000a900460ff1660048111156118db57fe5b1480156118ea57506009600354145b1561191b5760046000806101000a81548160ff0219169083600481111561190d57fe5b021790555061191a6122c4565b5b5b5b5b600192505b600a8310156119805760026000848152602001908152602001600020915060008260010154148015611959575060008260020154115b156119735760008260020181905550600082600301819055505b8280600101935050611923565b600360008154809291906001019190505550426004819055506000600560006101000a81548160ff0219169083151502179055507f66a4864f2520b5c71375b7a0f671b59bac6c679ce9fa338b77bd44f56b3162e160405160405180910390a1505050505050565b60035481565b600560019054906101000a900473ffffffffffffffffffffffffffffffffffffffff1681565b600060026004811115611a2357fe5b6000809054906101000a900460ff166004811115611a3d57fe5b1480611a6d575060036004811115611a5157fe5b6000809054906101000a900460ff166004811115611a6b57fe5b145b1515611a7857600080fd5b60026004811115611a8557fe5b6000809054906101000a900460ff166004811115611a9f57fe5b1415611aae5760019050611ae1565b60026004811115611abb57fe5b6000809054906101000a900460ff166004811115611ad557fe5b1415611ae057600290505b5b80905090565b6000806000806000600160008781526020019081526020016000206001015460016000888152602001908152602001600020600201546001600089815260200190815260200160002060040154600160008a815260200190815260200160002060030154600160008b815260200190815260200160002060070160009054906101000a900460ff169450945094509450945091939590929450565b600042905090565b60006004544203905090565b60008060008073ffffffffffffffffffffffffffffffffffffffff16600160006001815260200190815260200160002060050160003373ffffffffffffffffffffffffffffffffffffffff1673ffffffffffffffffffffffffffffffffffffffff16815260200190815260200160002060040160009054906101000a900473ffffffffffffffffffffffffffffffffffffffff1673ffffffffffffffffffffffffffffffffffffffff16141515611c4c57600080fd5b600560019054906101000a900473ffffffffffffffffffffffffffffffffffffffff1673ffffffffffffffffffffffffffffffffffffffff163373ffffffffffffffffffffffffffffffffffffffff1614151515611ca957600080fd5b60011515600160006002815260200190815260200160002060070160009054906101000a900460ff161515141515611ce057600080fd5b83600081118015611cf15750600a81105b1515611cfc57600080fd5b8460006002600083815260200190815260200160002060010154141515611d2257600080fd5b600354600160006001815260200190815260200160002060050160003373ffffffffffffffffffffffffffffffffffffffff1673ffffffffffffffffffffffffffffffffffffffff16815260200190815260200160002060030154101515611d8957600080fd5b600354600160006002815260200190815260200160002060050160003373ffffffffffffffffffffffffffffffffffffffff1673ffffffffffffffffffffffffffffffffffffffff16815260200190815260200160002060030154101515611df057600080fd5b67016345785d8a00003410151515611e0757600080fd5b6001806004811115611e1557fe5b6000809054906101000a900460ff166004811115611e2f57fe5b141515611e3b57600080fd5b600160006002815260200190815260200160002060050160003373ffffffffffffffffffffffffffffffffffffffff1673ffffffffffffffffffffffffffffffffffffffff1681526020019081526020016000209550600073ffffffffffffffffffffffffffffffffffffffff168660040160009054906101000a900473ffffffffffffffffffffffffffffffffffffffff1673ffffffffffffffffffffffffffffffffffffffff161415611fe1576001600060028152602001908152602001600020600401600081546001019190508190559450336001600060028152602001908152602001600020600601600087815260200190815260200160002060006101000a81548173ffffffffffffffffffffffffffffffffffffffff021916908373ffffffffffffffffffffffffffffffffffffffff160217905550848660000181905550338660040160006101000a81548173ffffffffffffffffffffffffffffffffffffffff021916908373ffffffffffffffffffffffffffffffffffffffff16021790555060008660040160146101000a81548160ff0219169083151502179055505b600260008881526020019081526020016000209350836002016000815480929190600101919050555034846003016000828254019250508190555060016000600281526020019081526020016000206001016000815480929190600101919050555034600160006002815260200190815260200160002060020160008282540192505081905550348660010160008282540192505081905550856002016000815480929190600101919050555060035486600301819055506001600560006101000a81548160ff0219169083151502179055507f0b1ae1e99afdc0e010b1efddaedaba5129ae685d967cc6861d0b370de83d568b60405160405180910390a150505050505050565b6000600160026003548115156120fb57fe5b06141561210b5760019050612110565b600290505b80905090565b600080600080600260008681526020019081526020016000206000015460026000878152602001908152602001600020600101546002600088815260200190815260200160002060020154600260008981526020019081526020016000206003015493509350935093509193509193565b60008060008060008061219861291d565b600160008a815260200190815260200160002091508160050160008973ffffffffffffffffffffffffffffffffffffffff1673ffffffffffffffffffffffffffffffffffffffff16815260200190815260200160002060c06040519081016040529081600082015481526020016001820154815260200160028201548152602001600382015481526020016004820160009054906101000a900473ffffffffffffffffffffffffffffffffffffffff1673ffffffffffffffffffffffffffffffffffffffff1673ffffffffffffffffffffffffffffffffffffffff1681526020016004820160149054906101000a900460ff161515151581525050905080608001518160a001518260400151836020015184606001519650965096509650965050509295509295909350565b6000806000806000600160006002815260200190815260200160002060030154600160006001815260200190815260200160002060030154019450600560019054906101000a900473ffffffffffffffffffffffffffffffffffffffff1673ffffffffffffffffffffffffffffffffffffffff166108fc60646006543073ffffffffffffffffffffffffffffffffffffffff16310281151561236257fe5b049081150290604051600060405180830381858888f1935050505015801561238e573d6000803e3d6000fd5b503073ffffffffffffffffffffffffffffffffffffffff163193506004808111156123b557fe5b6000809054906101000a900460ff1660048111156123cf57fe5b141561263057600192505b60016000600181526020019081526020016000206004015483111515612500576001600060018152602001908152602001600020600601600084815260200190815260200160002060009054906101000a900473ffffffffffffffffffffffffffffffffffffffff169150600160006001815260200190815260200160002060050160008373ffffffffffffffffffffffffffffffffffffffff1673ffffffffffffffffffffffffffffffffffffffff1681526020019081526020016000206001015490508173ffffffffffffffffffffffffffffffffffffffff166108fc868387028115156124c657fe5b049081150290604051600060405180830381858888f193505050501580156124f2573d6000803e3d6000fd5b5082806001019350506123da565b600192505b6001600060028152602001908152602001600020600401548311151561262b576001600060028152602001908152602001600020600601600084815260200190815260200160002060009054906101000a900473ffffffffffffffffffffffffffffffffffffffff169150600160006002815260200190815260200160002060050160008373ffffffffffffffffffffffffffffffffffffffff1673ffffffffffffffffffffffffffffffffffffffff1681526020019081526020016000206001015490508173ffffffffffffffffffffffffffffffffffffffff166108fc868387028115156125f157fe5b049081150290604051600060405180830381858888f1935050505015801561261d573d6000803e3d6000fd5b508280600101935050612505565b612916565b6002600481111561263d57fe5b6000809054906101000a900460ff16600481111561265757fe5b14156127a457600192505b6001600060018152602001908152602001600020600401548311151561279f576001600060018152602001908152602001600020600601600084815260200190815260200160002060009054906101000a900473ffffffffffffffffffffffffffffffffffffffff169150600160006001815260200190815260200160002060050160008373ffffffffffffffffffffffffffffffffffffffff1673ffffffffffffffffffffffffffffffffffffffff1681526020019081526020016000206001015490508173ffffffffffffffffffffffffffffffffffffffff166108fc60016000600181526020019081526020016000206003015483870281151561276557fe5b049081150290604051600060405180830381858888f19350505050158015612791573d6000803e3d6000fd5b508280600101935050612662565b612915565b600360048111156127b157fe5b6000809054906101000a900460ff1660048111156127cb57fe5b141561291457600192505b60016000600281526020019081526020016000206004015483111515612913576001600060028152602001908152602001600020600601600084815260200190815260200160002060009054906101000a900473ffffffffffffffffffffffffffffffffffffffff169150600160006002815260200190815260200160002060050160008373ffffffffffffffffffffffffffffffffffffffff1673ffffffffffffffffffffffffffffffffffffffff1681526020019081526020016000206001015490508173ffffffffffffffffffffffffffffffffffffffff166108fc6001600060028152602001908152602001600020600301548387028115156128d957fe5b049081150290604051600060405180830381858888f19350505050158015612905573d6000803e3d6000fd5b5082806001019350506127d6565b5b5b5b5050505050565b60c06040519081016040528060008152602001600081526020016000815260200160008152602001600073ffffffffffffffffffffffffffffffffffffffff16815260200160001515815250905600a165627a7a72305820751f91ae7d5cc4f69b8f1e2f9503168b7b19cffb6df616f088f92b344c033ceb0029",
  "source": "pragma solidity ^0.4.24;\r\n\r\ncontract TicTacToeContract {\r\n\r\n    // --------------------------------------\r\n    // state variables\r\n    // --------------------------------------\r\n\r\n   enum Status { FAUCET, RUNNING, TEAM_A_WON, TEAM_B_WON, DRAW}\r\n   Status public status;\r\n\r\n    // uint can be 1 (Team A) or 2 (Team B)\r\n    mapping (uint => Team) Teams;\r\n    struct Team {\r\n        uint id; // 1 or 2\r\n        uint numBetsCurrentRound;\r\n        uint amountBetCurrentRound;\r\n        uint totalAmountBet;\r\n        uint totalNumPlayers;\r\n        mapping (address => Player) players;\r\n        // 'playersAddress' is needed access players in payout function\r\n\t\tmapping (uint => address) playersAddress;\r\n        bool nextBet; // bool if it is the turn of this team\r\n    }\r\n\r\n    struct Player {\r\n\t\tuint id;\r\n        uint totalAmountBet;\r\n        uint totalNumMovesBet;\r\n        uint lastBetRound; // round in which player bet the last time\r\n\t\taddress playerAddress;\r\n        bool isTeamA;\r\n    }\r\n\r\n    // field's id of board\r\n    // uint from 1 to 9\r\n    //   1 |  2  |  3\r\n    //   4 |  5  |  6\r\n    //   7 |  8  |  9\r\n    // todo: initialize board in constructor\r\n    mapping (uint => Field) board;\r\n    struct Field {\r\n        uint id;\r\n        // 0 = default = unplayed; 1 = TeamA; 4 = TeamB\r\n        uint unplayedOrAorB;\r\n        // the field with the most amount bet on it will be chosen.\r\n        // we will take record of the number of bets on one field\r\n        uint numBets;\r\n        // and the amount of ether bet on it\r\n        uint amountBet;\r\n    }\r\n\r\n    uint public currentRound;\r\n    uint startTimeOfCurrentRound;\r\n\r\n    bool betMade;\r\n\r\n    address public owner;\r\n\r\n    // share of pot that goes to owner of contract in % (need to be integer)\r\n    uint shareOwner = 10;\r\n\r\n    uint public constant minStake = 0.1 ether;\r\n\r\n    // mapping to see who used the faucet\r\n    mapping (address => bool) usedFaucet;\r\n    // ether every person gets\r\n    uint faucetMoney = 1.5 ether;\r\n\r\n\r\n\r\n\r\n    // --------------------------------------\r\n    // events\r\n    // --------------------------------------\r\n\r\n    event betMadeEvent();\r\n    event roundEndedEvent();\r\n    event FaucetUsedEvent();\r\n\r\n\r\n\r\n\r\n    // --------------------------------------\r\n    // modifiers\r\n    // --------------------------------------\r\n\r\n    // nur Owner\r\n    modifier onlyOwner () {\r\n        require(msg.sender == owner);\r\n        _;\r\n    }\r\n\r\n    // nur Owner\r\n    modifier notOwner () {\r\n        require(msg.sender != owner);\r\n        _;\r\n    }\r\n\r\n    modifier inStatus (Status _status) {\r\n       require(status == _status);\r\n       _;\r\n    }\r\n\r\n    modifier activeTeam (uint _Teamid) {\r\n        require(Teams[_Teamid].nextBet == true);\r\n        _;\r\n    }\r\n\r\n    modifier activeTeamA () {\r\n        require(Teams[1].nextBet == true);\r\n        _;\r\n    }\r\n\r\n    modifier activeTeamB () {\r\n        require(Teams[2].nextBet == true);\r\n        _;\r\n    }\r\n\r\n    // man kann nur in einem Team wetten\r\n    modifier notAlreadyPlayerTeamB() {\r\n        require(Teams[2].players[msg.sender].playerAddress == address(0));\r\n        _;\r\n    }\r\n\r\n    modifier notAlreadyPlayerTeamA() {\r\n        require(Teams[1].players[msg.sender].playerAddress == address(0));\r\n        _;\r\n    }\r\n\r\n    modifier isValidField(uint _fieldId) {\r\n        require (_fieldId > 0 && _fieldId < 10 );\r\n        _;\r\n    }\r\n\r\n    // assure that field is free\r\n    modifier unplayedField(uint _fieldId) {\r\n        require(board[_fieldId].unplayedOrAorB == 0);\r\n        _;\r\n    }\r\n\r\n    modifier hasNotBetYetCurrentRound() {\r\n        require(Teams[1].players[msg.sender].lastBetRound < currentRound);\r\n        require(Teams[2].players[msg.sender].lastBetRound < currentRound);\r\n        _;\r\n    }\r\n\r\n    modifier validStake() {\r\n        require(msg.value >= minStake);\r\n        _;\r\n    }\r\n\r\n    modifier hasBetBeenMade() {\r\n      require(betMade == true);\r\n      _;\r\n   }\r\n\r\n\r\n\r\n\r\n    // --------------------------------------\r\n    // functions\r\n    // --------------------------------------\r\n\r\n    constructor () {\r\n        owner = msg.sender;\r\n        startTheGame();\r\n    }\r\n\r\n    // initialize 'board' and Teams\r\n    function startTheGame () private {\r\n        status = Status.FAUCET;\r\n        // create Team A\r\n        uint teamAid = 1;\r\n        Team newTeamA = Teams[teamAid];\r\n        newTeamA.id = teamAid;\r\n        newTeamA.nextBet = true;\r\n\r\n        // create Team B\r\n        uint teamBid = 2;\r\n        Team newTeamB = Teams[teamBid];\r\n        newTeamB.id = teamBid;\r\n        newTeamB.nextBet = false;\r\n\r\n        // initialize board\r\n        for (uint i=1; i<10; i++) {\r\n           Field field = board[i];\r\n           field.id = i;\r\n           field.unplayedOrAorB = 0;\r\n           field.numBets = 0;\r\n           field.amountBet = 0;\r\n       }\r\n\r\n        currentRound = 1;\r\n        startTimeOfCurrentRound = now;\r\n    }\r\n\r\n    // fallback function to fill faucet\r\n   function () public payable {}\r\n\r\n   // in 'Write Contract' tab of etherscan the fallback function is not shown.\r\n   // Make explicit fallback function to fill faucet with Ether\r\n   function fillFaucet() public payable {\r\n      emit FaucetUsedEvent();\r\n   }\r\n\r\n   function getBalance () public view returns (uint balance) {\r\n       return this.balance;\r\n   }\r\n\r\n    function useFaucet () public inStatus(Status.FAUCET) {\r\n      // faucet can only be used once\r\n      require(usedFaucet[msg.sender] == false && this.balance >= faucetMoney);\r\n      // msg sender has not yet used faucet\r\n      usedFaucet[msg.sender] = true; // msg.sender can not use faucet again\r\n      msg.sender.transfer(faucetMoney);\r\n      emit FaucetUsedEvent();\r\n   }\r\n\r\n   function endFaucet () public onlyOwner inStatus(Status.FAUCET) {\r\n      owner.transfer(this.balance);\r\n      status = Status.RUNNING;\r\n      emit FaucetUsedEvent();\r\n   }\r\n\r\n    // new players or player from team A can bet on next field '_betField' (1-9)\r\n    function newBetForTeamA (uint _betField) public payable\r\n    notAlreadyPlayerTeamB()\r\n    notOwner()\r\n    activeTeamA()\r\n    isValidField(_betField)\r\n    unplayedField(_betField)\r\n    hasNotBetYetCurrentRound()\r\n    validStake()\r\n    inStatus(Status.RUNNING)\r\n    {\r\n        Player player = Teams[1].players[msg.sender];\r\n        // add new player to team A\r\n        if (player.playerAddress == address(0)){\r\n            uint newID = ++Teams[1].totalNumPlayers;\r\n            Teams[1].playersAddress[newID] = msg.sender;\r\n            player.id = newID;\r\n            player.playerAddress = msg.sender;\r\n            // todo: no need to set this every time\r\n            player.isTeamA = true;\r\n        }\r\n\r\n        Field betField = board[_betField];\r\n        betField.numBets++;\r\n        betField.amountBet += msg.value;\r\n\r\n        Teams[1].numBetsCurrentRound++;\r\n        Teams[1].amountBetCurrentRound += msg.value;\r\n\r\n        player.totalAmountBet += msg.value;\r\n        player.totalNumMovesBet++;\r\n        player.lastBetRound = currentRound;\r\n\r\n        betMade = true;\r\n\r\n        emit betMadeEvent();\r\n    }\r\n\r\n    // new players or player from team B can bet on next field '_betField' (1-9)\r\n    function newBetForTeamB (uint _betField) public payable\r\n    notAlreadyPlayerTeamA()\r\n    notOwner()\r\n    activeTeamB()\r\n    isValidField(_betField)\r\n    unplayedField(_betField)\r\n    hasNotBetYetCurrentRound()\r\n    validStake()\r\n    inStatus(Status.RUNNING)\r\n    {\r\n        Player player = Teams[2].players[msg.sender];\r\n        // add new player to team A\r\n        if (player.playerAddress == address(0)){\r\n            uint newID = ++Teams[2].totalNumPlayers;\r\n            Teams[2].playersAddress[newID] = msg.sender;\r\n            player.id = newID;\r\n            player.playerAddress = msg.sender;\r\n            // todo: no need to set this every time\r\n            player.isTeamA = false;\r\n        }\r\n\r\n        Field betField = board[_betField];\r\n        betField.numBets++;\r\n        betField.amountBet += msg.value;\r\n\r\n        Teams[2].numBetsCurrentRound++;\r\n        Teams[2].amountBetCurrentRound += msg.value;\r\n\r\n        player.totalAmountBet += msg.value;\r\n        player.totalNumMovesBet++;\r\n        player.lastBetRound = currentRound;\r\n\r\n        betMade = true;\r\n\r\n        emit betMadeEvent();\r\n    }\r\n\r\n    function endRound () onlyOwner inStatus(Status.RUNNING) hasBetBeenMade() {\r\n        // get active team\r\n        // 1 = Team A\r\n        // 2 = Team B\r\n        uint activeTeam = getActiveTeam();\r\n\r\n        Teams[activeTeam].totalAmountBet += Teams[activeTeam].amountBetCurrentRound;\r\n        Teams[activeTeam].numBetsCurrentRound = 0; // todo looks like this variabel is not used\r\n        Teams[activeTeam].amountBetCurrentRound = 0;\r\n\r\n\r\n        uint winningFieldIndex = getWinningFieldIndex();\r\n        Field winningField = board[winningFieldIndex];\r\n\r\n        if (activeTeam == 1){\r\n            // Team A\r\n            winningField.unplayedOrAorB = 1;\r\n            Teams[1].nextBet = false;\r\n            Teams[2].nextBet = true;\r\n        }\r\n        else if (activeTeam == 2){\r\n            // Team B\r\n            winningField.unplayedOrAorB = 4;\r\n            Teams[1].nextBet = true;\r\n            Teams[2].nextBet = false;\r\n        }\r\n\r\n        // check for winner but only after 5 rounds\r\n        if (currentRound >= 5){\r\n            // check involves all rows (3x), all coulmns (3x) and diagonals (2x)\r\n            // unplayedOrAorB: 1 = TeamA; 4 = TeamB\r\n            // board:\r\n            //   1 |  2  |  3\r\n            //   4 |  5  |  6\r\n            //   7 |  8  |  9\r\n            if (\r\n            // rows\r\n            board[1].unplayedOrAorB+board[2].unplayedOrAorB+board[3].unplayedOrAorB == 3 ||\r\n            board[4].unplayedOrAorB+board[5].unplayedOrAorB+board[6].unplayedOrAorB == 3 ||\r\n            board[7].unplayedOrAorB+board[8].unplayedOrAorB+board[9].unplayedOrAorB == 3 ||\r\n            // columns\r\n            board[1].unplayedOrAorB+board[4].unplayedOrAorB+board[7].unplayedOrAorB == 3 ||\r\n            board[2].unplayedOrAorB+board[5].unplayedOrAorB+board[8].unplayedOrAorB == 3 ||\r\n            board[3].unplayedOrAorB+board[6].unplayedOrAorB+board[9].unplayedOrAorB == 3 ||\r\n            // diagonals\r\n            board[1].unplayedOrAorB+board[5].unplayedOrAorB+board[9].unplayedOrAorB == 3 ||\r\n            board[3].unplayedOrAorB+board[5].unplayedOrAorB+board[7].unplayedOrAorB == 3)\r\n            {\r\n                status = Status.TEAM_A_WON;\r\n                payoutMoney();\r\n            } else if (\r\n            // rows\r\n            board[1].unplayedOrAorB+board[2].unplayedOrAorB+board[3].unplayedOrAorB == 12 ||\r\n            board[4].unplayedOrAorB+board[5].unplayedOrAorB+board[6].unplayedOrAorB == 12 ||\r\n            board[7].unplayedOrAorB+board[8].unplayedOrAorB+board[9].unplayedOrAorB == 12 ||\r\n            // columns\r\n            board[1].unplayedOrAorB+board[4].unplayedOrAorB+board[7].unplayedOrAorB == 12 ||\r\n            board[2].unplayedOrAorB+board[5].unplayedOrAorB+board[8].unplayedOrAorB == 12 ||\r\n            board[3].unplayedOrAorB+board[6].unplayedOrAorB+board[9].unplayedOrAorB == 12 ||\r\n            // diagonals\r\n            board[1].unplayedOrAorB+board[5].unplayedOrAorB+board[9].unplayedOrAorB == 12 ||\r\n            board[3].unplayedOrAorB+board[5].unplayedOrAorB+board[7].unplayedOrAorB == 12)\r\n            {\r\n                status = Status.TEAM_B_WON;\r\n                payoutMoney();\r\n            } else if (status == Status.RUNNING && currentRound == 9) {\r\n                // check for draw\r\n                status = Status.DRAW;\r\n                payoutMoney();\r\n            }\r\n        }\r\n\r\n        // for all unplayed fields, clear bets\r\n        for (uint i=1; i<10; i++) {\r\n            Field field = board[i];\r\n            if (field.unplayedOrAorB == 0 && field.numBets > 0) {\r\n                field.numBets = 0;\r\n                field.amountBet = 0;\r\n            }\r\n        }\r\n\r\n       currentRound++;\r\n       startTimeOfCurrentRound = now;\r\n\r\n       betMade = false;\r\n\r\n       emit roundEndedEvent();\r\n    }\r\n\r\n    function payoutMoney() private {\r\n        uint pot = Teams[1].totalAmountBet + Teams[2].totalAmountBet;\r\n\r\n        // part of pot goes to contract owner\r\n        owner.transfer(this.balance*shareOwner/100);\r\n\r\n        uint leftOverPot = this.balance;\r\n\r\n        if (status == Status.DRAW) {\r\n            // Team A\r\n            for (uint i=1; i<=Teams[1].totalNumPlayers; i++) {\r\n                address playerAddress = Teams[1].playersAddress[i];\r\n                uint amountBet = Teams[1].players[playerAddress].totalAmountBet;\r\n                // share: leftOverPot * amountBet/pot\r\n                playerAddress.transfer(leftOverPot * amountBet/pot);\r\n            }\r\n            // Team B\r\n            for (i=1; i<=Teams[2].totalNumPlayers; i++) {\r\n                playerAddress = Teams[2].playersAddress[i];\r\n                amountBet = Teams[2].players[playerAddress].totalAmountBet;\r\n                // share: leftOverPot * amountBet/pot\r\n                playerAddress.transfer(leftOverPot * amountBet/pot);\r\n            }\r\n        } else if (status == Status.TEAM_A_WON) {\r\n            for (i=1; i<=Teams[1].totalNumPlayers; i++) {\r\n                playerAddress = Teams[1].playersAddress[i];\r\n                amountBet = Teams[1].players[playerAddress].totalAmountBet;\r\n                // share: leftOverPot * amountBet/Team[1].totalAmountBet\r\n                playerAddress.transfer(leftOverPot * amountBet/Teams[1].totalAmountBet);\r\n            }\r\n        } else if (status == Status.TEAM_B_WON) {\r\n            for (i=1; i<=Teams[2].totalNumPlayers; i++) {\r\n                playerAddress = Teams[2].playersAddress[i];\r\n                amountBet = Teams[2].players[playerAddress].totalAmountBet;\r\n                // share: leftOverPot * amountBet/Team[2].totalAmountBet\r\n                playerAddress.transfer(leftOverPot * amountBet/Teams[2].totalAmountBet);\r\n            }\r\n        }\r\n    }\r\n\r\n    function getActiveTeam() public view returns (uint _activeTeam) {\r\n        // 1 = A (for odd rounds)\r\n        // 2 = B (for even rounds)\r\n        if (currentRound%2 == 1){\r\n            _activeTeam = 1;\r\n        } else {\r\n            _activeTeam = 2;\r\n        }\r\n        return _activeTeam;\r\n    }\r\n\r\n    function getWinningFieldIndex() public view returns (uint _winningFieldIndex) {\r\n\r\n        uint highestAmountBet = 0;\r\n        // loop through all fields\r\n        for (uint i=1; i<10; i++) {\r\n            if (board[i].unplayedOrAorB == 0) {\r\n                // only check field if it is not played yet\r\n               uint amountBet = board[i].amountBet;\r\n               // if amountBet is higher, make this field the winningField\r\n               if (amountBet > highestAmountBet) {\r\n                   _winningFieldIndex = i;\r\n                   highestAmountBet = amountBet;\r\n               }\r\n            }\r\n       }\r\n       return _winningFieldIndex;\r\n    }\r\n\r\n    function getPot() public view returns (uint totaltPot, uint totallPot) {\r\n        return (this.balance, this.balance - this.balance*shareOwner/100);\r\n    }\r\n\r\n    // call function\r\n    function getTeamInfo (uint _Teamid) view public returns\r\n    (uint numBetsCurrentRound, uint amountBetCurrentRound, uint totalNumPlayers, uint totalAmountBet, bool nextBet) {\r\n        return (Teams[_Teamid].numBetsCurrentRound, Teams[_Teamid].amountBetCurrentRound, Teams[_Teamid].totalNumPlayers, Teams[_Teamid].totalAmountBet, Teams[_Teamid].nextBet);\r\n    }\r\n\r\n    // call function\r\n    function getPlayerInfoByAddress(uint _Teamid, address _playerAddress) view public returns\r\n    (address playerAddress, bool isTeamA, uint totalNumMovesBet, uint totalAmountBet, uint lastBetRound) {\r\n        Team team = Teams[_Teamid];\r\n        Player memory player = team.players[_playerAddress];\r\n        return (player.playerAddress, player.isTeamA, player.totalNumMovesBet, player.totalAmountBet, player.lastBetRound);\r\n    }\r\n\r\n    // function getPlayerInfoById(uint _Teamid, uint _id) view public returns\r\n    // (address playerAddress, bool isTeamA, uint totalNumMovesBet, uint totalAmountBet, uint lastBetRound) {\r\n    //     Team team = Teams[_Teamid];\r\n    //     address _playerAddress = team.playersAddress[_id];\r\n    //     Player memory player = team.players[_playerAddress];\r\n    //     return (player.playerAddress, player.isTeamA, player.totalNumMovesBet, player.totalAmountBet, player.lastBetRound);\r\n    // }\r\n    function getPlayerInfoById(uint _Teamid, uint _id) view public returns\r\n    (uint id, address playerAddress, bool isTeamA, uint totalNumMovesBet, uint totalAmountBet, uint lastBetRound) {\r\n         Team team = Teams[_Teamid];\r\n         address _playerAddress = team.playersAddress[_id];\r\n         Player memory player = team.players[_playerAddress];\r\n         return (player.id, player.playerAddress, player.isTeamA, player.totalNumMovesBet, player.totalAmountBet, player.lastBetRound);\r\n     }\r\n\r\n    // call function, da bei getTeamInfo bereits zu viele Parameter\r\n    function getWinner () view public returns (uint winningTeamIndex) {\r\n        require (status == Status.TEAM_A_WON || status == Status.TEAM_B_WON);\r\n        if (status == Status.TEAM_A_WON) {\r\n            winningTeamIndex = 1;\r\n        } else if (status == Status.TEAM_A_WON) {\r\n            winningTeamIndex = 2;\r\n        }\r\n        return winningTeamIndex;\r\n    }\r\n\r\n    // call function\r\n    function getBoardInfo(uint _fieldId) view public returns (uint id, uint unplayedOrAorB, uint numBets, uint amountBet) {\r\n        return (board[_fieldId].id, board[_fieldId].unplayedOrAorB, board[_fieldId].numBets, board[_fieldId].amountBet);\r\n    }\r\n\r\n    function getTimeOfCurrentRound() public view returns (uint elapsedTime) {\r\n        return (now-startTimeOfCurrentRound);\r\n    }\r\n    // call function Zeit in Sekunden anzeigen seit 1970 (Hilfsfunktion) kann man evtl spter fr Zeitanzeige verwenden\r\n    function getToday ()  view public returns (uint _today) {\r\n        _today = now;\r\n    }\r\n}\r\n",
  "sourcePath": "C:\\Users\\lucas\\Dropbox\\Private\\UNI\\Blockchain\\2018 Smart Contracts and Decentralized Blockchain Applications\\TicTacToe\\TicTacToeContract\\contracts\\TicTacToeContract.sol",
  "compiler": {
    "name": "solc",
    "version": "0.4.24+commit.e67f0147.Emscripten.clang"
  },
  "schemaVersion": "2.0.1",
  "updatedAt": "2018-12-08T12:37:32.058Z"
}